{
  "contractName": "EthSwap",
  "abi": [
    {
      "inputs": [
        {
          "internalType": "contract Token",
          "name": "_token",
          "type": "address"
        }
      ],
      "payable": false,
      "stateMutability": "nonpayable",
      "type": "constructor"
    },
    {
      "constant": true,
      "inputs": [],
      "name": "name",
      "outputs": [
        {
          "internalType": "string",
          "name": "",
          "type": "string"
        }
      ],
      "payable": false,
      "stateMutability": "view",
      "type": "function"
    },
    {
      "constant": true,
      "inputs": [],
      "name": "ratePerToken",
      "outputs": [
        {
          "internalType": "uint256",
          "name": "",
          "type": "uint256"
        }
      ],
      "payable": false,
      "stateMutability": "view",
      "type": "function"
    },
    {
      "constant": true,
      "inputs": [],
      "name": "token",
      "outputs": [
        {
          "internalType": "contract Token",
          "name": "",
          "type": "address"
        }
      ],
      "payable": false,
      "stateMutability": "view",
      "type": "function"
    },
    {
      "constant": false,
      "inputs": [],
      "name": "buyTokens",
      "outputs": [],
      "payable": true,
      "stateMutability": "payable",
      "type": "function"
    },
    {
      "constant": true,
      "inputs": [
        {
          "internalType": "address",
          "name": "addr",
          "type": "address"
        }
      ],
      "name": "getAccountType",
      "outputs": [
        {
          "internalType": "string",
          "name": "",
          "type": "string"
        }
      ],
      "payable": false,
      "stateMutability": "view",
      "type": "function"
    },
    {
      "constant": true,
      "inputs": [
        {
          "internalType": "address",
          "name": "addr",
          "type": "address"
        }
      ],
      "name": "isContract",
      "outputs": [
        {
          "internalType": "bool",
          "name": "",
          "type": "bool"
        }
      ],
      "payable": false,
      "stateMutability": "view",
      "type": "function"
    }
  ],
  "bytecode": "0x60806040526040518060400160405280601981526020017f457468537761702043757272656e63792045786368616e6765000000000000008152506000908051906020019061004f9291906100dc565b50606460025534801561006157600080fd5b506040516106d43803806106d48339818101604052602081101561008457600080fd5b810190808051906020019092919050505080600160006101000a81548173ffffffffffffffffffffffffffffffffffffffff021916908373ffffffffffffffffffffffffffffffffffffffff16021790555050610181565b828054600181600116156101000203166002900490600052602060002090601f016020900481019282601f1061011d57805160ff191683800117855561014b565b8280016001018555821561014b579182015b8281111561014a57825182559160200191906001019061012f565b5b509050610158919061015c565b5090565b61017e91905b8082111561017a576000816000905550600101610162565b5090565b90565b610544806101906000396000f3fe6080604052600436106100555760003560e01c806306fdde031461005a57806316279055146100ea578063ae20314614610153578063cc83eef51461021d578063d0febe4c14610248578063fc0c546a14610252575b600080fd5b34801561006657600080fd5b5061006f6102a9565b6040518080602001828103825283818151815260200191508051906020019080838360005b838110156100af578082015181840152602081019050610094565b50505050905090810190601f1680156100dc5780820380516001836020036101000a031916815260200191505b509250505060405180910390f35b3480156100f657600080fd5b506101396004803603602081101561010d57600080fd5b81019080803573ffffffffffffffffffffffffffffffffffffffff169060200190929190505050610347565b604051808215151515815260200191505060405180910390f35b34801561015f57600080fd5b506101a26004803603602081101561017657600080fd5b81019080803573ffffffffffffffffffffffffffffffffffffffff169060200190929190505050610368565b6040518080602001828103825283818151815260200191508051906020019080838360005b838110156101e25780820151818401526020810190506101c7565b50505050905090810190601f16801561020f5780820380516001836020036101000a031916815260200191505b509250505060405180910390f35b34801561022957600080fd5b506102326103f2565b6040518082815260200191505060405180910390f35b6102506103f8565b005b34801561025e57600080fd5b506102676104e9565b604051808273ffffffffffffffffffffffffffffffffffffffff1673ffffffffffffffffffffffffffffffffffffffff16815260200191505060405180910390f35b60008054600181600116156101000203166002900480601f01602080910402602001604051908101604052809291908181526020018280546001816001161561010002031660029004801561033f5780601f106103145761010080835404028352916020019161033f565b820191906000526020600020905b81548152906001019060200180831161032257829003601f168201915b505050505081565b600080823b90506000811461035d576001610360565b60005b915050919050565b60606000823b9050600081146103b3576040518060400160405280600881526020017f636f6e74726163740000000000000000000000000000000000000000000000008152506103ea565b6040518060400160405280600381526020017f656f6100000000000000000000000000000000000000000000000000000000008152505b915050919050565b60025481565b600060025434029050600160009054906101000a900473ffffffffffffffffffffffffffffffffffffffff1673ffffffffffffffffffffffffffffffffffffffff1663a9059cbb33836040518363ffffffff1660e01b8152600401808373ffffffffffffffffffffffffffffffffffffffff1673ffffffffffffffffffffffffffffffffffffffff16815260200182815260200192505050602060405180830381600087803b1580156104aa57600080fd5b505af11580156104be573d6000803e3d6000fd5b505050506040513d60208110156104d457600080fd5b81019080805190602001909291905050505050565b600160009054906101000a900473ffffffffffffffffffffffffffffffffffffffff168156fea265627a7a72315820240bb4e3e4de3cf4f1c7c6f5bc728742771d0ee59ae318d434fe4021533ac3a864736f6c63430005100032",
  "source": "// SPDX-License-Identifier: MIT\n\npragma solidity ^0.5.16;\n\nimport './Token.sol';\n\ncontract EthSwap {\n    string public name = 'EthSwap Currency Exchange';\n    \n    // Get a reference to the Token Contract Code (not the address, which is token.address)\n    // Note: This means we are storing this code on the blockchain\n    // Question: If it's already on the blockchain, does it make sense to actually store it, \n    //           or just simply have the caller send in the address of the Token contract? In \n    //           this way, we would be pointing directly at the Token contract wherever it lives\n    //           on the blockchain rather than duplicating it and storing it a second time.\n\n    // Clarification:   \n    //           What is now better understood, is that the EthSwap constructor actually does\n    //           receive the token's address, which allows us to get a reference to the running instance\n    //           of the Token contract. We simple assign it to the state variable token.\n    //\n    //           So, no, the object is not duplicated. There is still only one instance of the\n    //           Token contract.\n    Token public token;  \n\n    uint public ratePerToken = 100; // 100 DAPP for 1 ether\n\n    constructor(Token _token) public {\n        token = _token;\n\n    }\n\n    // Another account or contract wants to buy DAPP tokens with ether\n    function buyTokens() public payable {\n\n        // Note: this function does not have input parameters. However, solidity will \n        // automatically provide msg.sender and msg.value as sender's account address \n        // and amount of ether sent in. (msg, address, and block objects are part of the global\n        // context made available by solidity)\n\n        // Also note the use of the payable keyword. This allows this function to accept\n        // incoming payments\n        \n        \n        // Calculate the number of DAPP tokens the ether will buy\n        uint tokensPurchased = msg.value * ratePerToken;\n\n        // Invoke the transaction on the Token contract\n        token.transfer(msg.sender, tokensPurchased);    \n    }\n    // Determine whether address is eoa or contract\n    function getAccountType(address addr) public view returns(string memory) {\n        uint256 codeLength;\n\n        assembly { codeLength := extcodesize(addr) }\n        return codeLength == 0 ? 'eoa' : 'contract';\n    }\n\n    function isContract(address addr) public view returns(bool) {\n        uint256 codeLength;\n\n        assembly { codeLength := extcodesize(addr) }\n        return codeLength == 0 ? false : true;\n    }\n\n}",
  "sourcePath": "/home/rick/projects/ethereum/eth_swap/src/contracts/EthSwap.sol",
  "compiler": {
    "name": "solc",
    "version": "0.5.16+commit.9c3226ce.Emscripten.clang"
  },
  "schemaVersion": "3.2.3",
  "updatedAt": "2022-02-04T23:45:18.913Z",
  "devdoc": {
    "methods": {}
  },
  "userdoc": {
    "methods": {}
  }
}