{
  "contractName": "EthSwap",
  "abi": [
    {
      "inputs": [
        {
          "internalType": "contract Token",
          "name": "_token",
          "type": "address"
        }
      ],
      "payable": false,
      "stateMutability": "nonpayable",
      "type": "constructor"
    },
    {
      "anonymous": false,
      "inputs": [
        {
          "indexed": false,
          "internalType": "address",
          "name": "account",
          "type": "address"
        },
        {
          "indexed": false,
          "internalType": "address",
          "name": "token",
          "type": "address"
        },
        {
          "indexed": false,
          "internalType": "uint256",
          "name": "amount",
          "type": "uint256"
        },
        {
          "indexed": false,
          "internalType": "uint256",
          "name": "rate",
          "type": "uint256"
        }
      ],
      "name": "TokensPurchased",
      "type": "event"
    },
    {
      "anonymous": false,
      "inputs": [
        {
          "indexed": false,
          "internalType": "address",
          "name": "account",
          "type": "address"
        },
        {
          "indexed": false,
          "internalType": "address",
          "name": "token",
          "type": "address"
        },
        {
          "indexed": false,
          "internalType": "uint256",
          "name": "amount",
          "type": "uint256"
        },
        {
          "indexed": false,
          "internalType": "uint256",
          "name": "rate",
          "type": "uint256"
        }
      ],
      "name": "TokensSold",
      "type": "event"
    },
    {
      "constant": true,
      "inputs": [],
      "name": "name",
      "outputs": [
        {
          "internalType": "string",
          "name": "",
          "type": "string"
        }
      ],
      "payable": false,
      "stateMutability": "view",
      "type": "function"
    },
    {
      "constant": true,
      "inputs": [],
      "name": "ratePerToken",
      "outputs": [
        {
          "internalType": "uint256",
          "name": "",
          "type": "uint256"
        }
      ],
      "payable": false,
      "stateMutability": "view",
      "type": "function"
    },
    {
      "constant": true,
      "inputs": [],
      "name": "token",
      "outputs": [
        {
          "internalType": "contract Token",
          "name": "",
          "type": "address"
        }
      ],
      "payable": false,
      "stateMutability": "view",
      "type": "function"
    },
    {
      "constant": false,
      "inputs": [],
      "name": "buyTokens",
      "outputs": [],
      "payable": true,
      "stateMutability": "payable",
      "type": "function"
    },
    {
      "constant": false,
      "inputs": [
        {
          "internalType": "uint256",
          "name": "numberOfTokensToSell",
          "type": "uint256"
        }
      ],
      "name": "sellTokens",
      "outputs": [],
      "payable": false,
      "stateMutability": "nonpayable",
      "type": "function"
    },
    {
      "constant": true,
      "inputs": [
        {
          "internalType": "address",
          "name": "addr",
          "type": "address"
        }
      ],
      "name": "getAccountType",
      "outputs": [
        {
          "internalType": "string",
          "name": "",
          "type": "string"
        }
      ],
      "payable": false,
      "stateMutability": "view",
      "type": "function"
    },
    {
      "constant": true,
      "inputs": [
        {
          "internalType": "address",
          "name": "addr",
          "type": "address"
        }
      ],
      "name": "isContract",
      "outputs": [
        {
          "internalType": "bool",
          "name": "",
          "type": "bool"
        }
      ],
      "payable": false,
      "stateMutability": "view",
      "type": "function"
    },
    {
      "constant": true,
      "inputs": [
        {
          "internalType": "address",
          "name": "_addr",
          "type": "address"
        }
      ],
      "name": "getTokenBalance",
      "outputs": [
        {
          "internalType": "uint256",
          "name": "",
          "type": "uint256"
        }
      ],
      "payable": false,
      "stateMutability": "view",
      "type": "function"
    },
    {
      "constant": true,
      "inputs": [
        {
          "internalType": "address",
          "name": "_addr",
          "type": "address"
        }
      ],
      "name": "getEtherBalance",
      "outputs": [
        {
          "internalType": "uint256",
          "name": "",
          "type": "uint256"
        }
      ],
      "payable": false,
      "stateMutability": "view",
      "type": "function"
    }
  ],
  "bytecode": "0x60806040526040518060400160405280601981526020017f457468537761702043757272656e63792045786368616e6765000000000000008152506000908051906020019061004f9291906100dc565b50606460025534801561006157600080fd5b50604051610dee380380610dee8339818101604052602081101561008457600080fd5b810190808051906020019092919050505080600160006101000a81548173ffffffffffffffffffffffffffffffffffffffff021916908373ffffffffffffffffffffffffffffffffffffffff16021790555050610181565b828054600181600116156101000203166002900490600052602060002090601f016020900481019282601f1061011d57805160ff191683800117855561014b565b8280016001018555821561014b579182015b8281111561014a57825182559160200191906001019061012f565b5b509050610158919061015c565b5090565b61017e91905b8082111561017a576000816000905550600101610162565b5090565b90565b610c5e806101906000396000f3fe6080604052600436106100865760003560e01c8063ae20314611610059578063ae20314614610224578063cc83eef5146102ee578063d0febe4c14610319578063dc45d08e14610323578063fc0c546a1461038857610086565b806306fdde031461008b578063162790551461011b5780633aecd0e3146101845780636c11bcd3146101e9575b600080fd5b34801561009757600080fd5b506100a06103df565b6040518080602001828103825283818151815260200191508051906020019080838360005b838110156100e05780820151818401526020810190506100c5565b50505050905090810190601f16801561010d5780820380516001836020036101000a031916815260200191505b509250505060405180910390f35b34801561012757600080fd5b5061016a6004803603602081101561013e57600080fd5b81019080803573ffffffffffffffffffffffffffffffffffffffff16906020019092919050505061047d565b604051808215151515815260200191505060405180910390f35b34801561019057600080fd5b506101d3600480360360208110156101a757600080fd5b81019080803573ffffffffffffffffffffffffffffffffffffffff16906020019092919050505061049e565b6040518082815260200191505060405180910390f35b3480156101f557600080fd5b506102226004803603602081101561020c57600080fd5b8101908080359060200190929190505050610581565b005b34801561023057600080fd5b506102736004803603602081101561024757600080fd5b81019080803573ffffffffffffffffffffffffffffffffffffffff169060200190929190505050610985565b6040518080602001828103825283818151815260200191508051906020019080838360005b838110156102b3578082015181840152602081019050610298565b50505050905090810190601f1680156102e05780820380516001836020036101000a031916815260200191505b509250505060405180910390f35b3480156102fa57600080fd5b50610303610a0f565b6040518082815260200191505060405180910390f35b610321610a15565b005b34801561032f57600080fd5b506103726004803603602081101561034657600080fd5b81019080803573ffffffffffffffffffffffffffffffffffffffff169060200190929190505050610be2565b6040518082815260200191505060405180910390f35b34801561039457600080fd5b5061039d610c03565b604051808273ffffffffffffffffffffffffffffffffffffffff1673ffffffffffffffffffffffffffffffffffffffff16815260200191505060405180910390f35b60008054600181600116156101000203166002900480601f0160208091040260200160405190810160405280929190818152602001828054600181600116156101000203166002900480156104755780601f1061044a57610100808354040283529160200191610475565b820191906000526020600020905b81548152906001019060200180831161045857829003601f168201915b505050505081565b600080823b905060008114610493576001610496565b60005b915050919050565b6000600160009054906101000a900473ffffffffffffffffffffffffffffffffffffffff1673ffffffffffffffffffffffffffffffffffffffff166370a08231836040518263ffffffff1660e01b8152600401808273ffffffffffffffffffffffffffffffffffffffff1673ffffffffffffffffffffffffffffffffffffffff16815260200191505060206040518083038186803b15801561053f57600080fd5b505afa158015610553573d6000803e3d6000fd5b505050506040513d602081101561056957600080fd5b81019080805190602001909291905050509050919050565b6000600254828161058e57fe5b04905081600160009054906101000a900473ffffffffffffffffffffffffffffffffffffffff1673ffffffffffffffffffffffffffffffffffffffff166370a08231336040518263ffffffff1660e01b8152600401808273ffffffffffffffffffffffffffffffffffffffff1673ffffffffffffffffffffffffffffffffffffffff16815260200191505060206040518083038186803b15801561063157600080fd5b505afa158015610645573d6000803e3d6000fd5b505050506040513d602081101561065b57600080fd5b810190808051906020019092919050505010156106e0576040517f08c379a000000000000000000000000000000000000000000000000000000000815260040180806020018281038252601c8152602001807f4e6f7420656e6f75676820746f6b656e7320696e206163636f756e740000000081525060200191505060405180910390fd5b80471015610756576040517f08c379a000000000000000000000000000000000000000000000000000000000815260040180806020018281038252601b8152602001807f4e6f7420656e6f75676820657468657220696e206163636f756e74000000000081525060200191505060405180910390fd5b600160009054906101000a900473ffffffffffffffffffffffffffffffffffffffff1673ffffffffffffffffffffffffffffffffffffffff166323b872dd3330856040518463ffffffff1660e01b8152600401808473ffffffffffffffffffffffffffffffffffffffff1673ffffffffffffffffffffffffffffffffffffffff1681526020018373ffffffffffffffffffffffffffffffffffffffff1673ffffffffffffffffffffffffffffffffffffffff1681526020018281526020019350505050602060405180830381600087803b15801561083357600080fd5b505af1158015610847573d6000803e3d6000fd5b505050506040513d602081101561085d57600080fd5b8101908080519060200190929190505050503373ffffffffffffffffffffffffffffffffffffffff166108fc829081150290604051600060405180830381858888f193505050501580156108b5573d6000803e3d6000fd5b507f697c42d55a5e1fed3f464ec6f38b32546a0bd368dc8068b065c67566d73f329033600160009054906101000a900473ffffffffffffffffffffffffffffffffffffffff1684600254604051808573ffffffffffffffffffffffffffffffffffffffff1673ffffffffffffffffffffffffffffffffffffffff1681526020018473ffffffffffffffffffffffffffffffffffffffff1673ffffffffffffffffffffffffffffffffffffffff16815260200183815260200182815260200194505050505060405180910390a15050565b60606000823b9050600081146109d0576040518060400160405280600881526020017f636f6e7472616374000000000000000000000000000000000000000000000000815250610a07565b6040518060400160405280600381526020017f656f6100000000000000000000000000000000000000000000000000000000008152505b915050919050565b60025481565b6000600254670de0b6b3a76400003481610a2b57fe5b04029050600160009054906101000a900473ffffffffffffffffffffffffffffffffffffffff1673ffffffffffffffffffffffffffffffffffffffff1663a9059cbb33836040518363ffffffff1660e01b8152600401808373ffffffffffffffffffffffffffffffffffffffff1673ffffffffffffffffffffffffffffffffffffffff16815260200182815260200192505050602060405180830381600087803b158015610ad857600080fd5b505af1158015610aec573d6000803e3d6000fd5b505050506040513d6020811015610b0257600080fd5b8101908080519060200190929190505050507f6faf93231a456e552dbc9961f58d9713ee4f2e69d15f1975b050ef0911053a7b33600160009054906101000a900473ffffffffffffffffffffffffffffffffffffffff1683600254604051808573ffffffffffffffffffffffffffffffffffffffff1673ffffffffffffffffffffffffffffffffffffffff1681526020018473ffffffffffffffffffffffffffffffffffffffff1673ffffffffffffffffffffffffffffffffffffffff16815260200183815260200182815260200194505050505060405180910390a150565b60008173ffffffffffffffffffffffffffffffffffffffff16319050919050565b600160009054906101000a900473ffffffffffffffffffffffffffffffffffffffff168156fea265627a7a723158207a3178d7cbf8ff52930dc8f03b775f612f57c3f80f56dd2612ecc9ab570067a264736f6c63430005100032",
  "source": "// SPDX-License-Identifier: MIT\n\npragma solidity ^0.5.16;\n\nimport './Token.sol';\n\ncontract EthSwap {\n    string public name = 'EthSwap Currency Exchange';\n    \n    // Get a reference to the Token Contract Code (not the address, which is token.address)\n    // Note: This means we are storing this code on the blockchain\n    // Question: If it's already on the blockchain, does it make sense to actually store it, \n    //           or just simply have the caller send in the address of the Token contract? In \n    //           this way, we would be pointing directly at the Token contract wherever it lives\n    //           on the blockchain rather than duplicating it and storing it a second time.\n\n    // Clarification:   \n    //           What is now better understood, is that the EthSwap constructor actually does\n    //           receive the token's address, which allows us to get a reference to the running instance\n    //           of the Token contract. We simple assign it to the state variable token.\n    //\n    //           So, no, the object is not duplicated. There is still only one instance of the\n    //           Token contract.\n    Token public token;  \n\n    uint256 public ratePerToken = 100; // 100 DAPP for 1 ether\n\n    event TokensPurchased (\n        address account,\n        address token,\n        uint amount,\n        uint rate\n    );\n    event TokensSold (\n        address account,\n        address token,\n        uint amount,\n        uint rate\n    );\n\n    constructor(Token _token) public {\n        token = _token;\n\n    }\n\n    // Another account or contract wants to buy DAPP tokens with ether\n    // We will transfer tokens to the buyer, who is providing ether\n    function buyTokens() external payable {\n\n        // Note: this function does not have input parameters. However, solidity will \n        // automatically provide msg.sender and msg.value as sender's account address \n        // and amount of ether sent in wei. (msg, address, and block objects are part of the global\n        // context made available by solidity)\n\n        // Also note the use of the payable keyword. This allows this function to accept\n        // incoming payments\n        \n        \n        // Calculate the number of DAPP tokens the ether will buy\n        uint256 tokensPurchased = (msg.value/10**18)  * ratePerToken;  // divide by 10**18 to convert wei to ether\n\n        // Invoke the transaction on the Token contract\n        token.transfer(msg.sender, tokensPurchased);    \n\n        // emit event allowing subcribers to be aware of the purchase\n        emit TokensPurchased(msg.sender, address(token), tokensPurchased, ratePerToken);\n\n        /* \n        rrf note:\n        =========\n        All of the following to update the balance of the contract IS NOT NEEDED!\n        Solidity has already recognized this as a payment transaction and takes\n        care of and is responsible for adding to the contract's balance.\n         */\n        \n        // Add the funds to the current contract's balance\n        // address payable contractAddress = payable(address(this));\n        // contractAddress.balance += msg.value;\n    }\n\n        // Sell tokens back to the exchange in return for ether at the current exchange rate\n        function sellTokens(uint256 numberOfTokensToSell) public {\n\n            uint256 ethOwed = (numberOfTokensToSell / ratePerToken);\n\n\n            // rrf note: the following requires are actually accounted for in the underlying ERC20 token functions.\n            // this is being done as a learning excercise, as both requires will need to be satisfied for the tx to take place.\n\n            // Require user has enough tokens to sell, else revert\n            require(token.balanceOf(msg.sender) >= numberOfTokensToSell, 'Not enough tokens in account');\n\n            // Require that contract has enough ether to support the transaction, else revert\n            require(address(this).balance >= ethOwed, 'Not enough ether in account');\n\n            // transfer tokens from msg.sender to this contract\n            // token.transfer(msg.sender, numberOfTokensToTrade);  // this function is not the correct one to invoke\n            token.transferFrom(msg.sender, address(this), numberOfTokensToSell );  // this function transfers token balance to the contract\n\n\n            // transfer ether from this contract to msg.sender\n            msg.sender.transfer(ethOwed); // Contract sending ether to msg.sender\n\n\n            // emit event allowing subcribers to be aware of the purchase\n            emit TokensSold(msg.sender, address(token), numberOfTokensToSell, ratePerToken);\n\n        }\n\n\n\n\n\n    // Determine whether address is eoa or contract\n    function getAccountType(address addr) public view returns(string memory) {\n        uint256 codeLength;\n\n        // if account has data (codeLength > ), then it is a contract, as eoa \n        // accounts do not have data.\n        // BUT, it is possible for eoa accounts to send data. It is just that eoa \n        //      accounts do not currently processs that data. SO, this could result\n        //      in false information being sent back to the caller.\n        assembly { codeLength := extcodesize(addr) }\n        return codeLength == 0 ? 'eoa' : 'contract';\n    }\n\n    function isContract(address addr) public view returns(bool) {\n        uint256 codeLength;\n\n        assembly { codeLength := extcodesize(addr) }\n        return codeLength == 0 ? false : true;\n    }\n\n    function getTokenBalance(address _addr) public view returns(uint256) {\n        return (token.balanceOf(_addr));\n    }\n\n    function getEtherBalance(address _addr) public view returns(uint256) {\n        return address(_addr).balance;\n    }\n}",
  "sourcePath": "/home/rick/projects/blockchain/ethereum/eth_swap/src/contracts/EthSwap.sol",
  "compiler": {
    "name": "solc",
    "version": "0.5.16+commit.9c3226ce.Emscripten.clang"
  },
  "schemaVersion": "3.2.3",
  "updatedAt": "2022-02-13T04:04:02.743Z",
  "networkType": "ethereum",
  "devdoc": {
    "methods": {}
  },
  "userdoc": {
    "methods": {}
  }
}