{
  "contractName": "Transfers",
  "abi": [
    {
      "inputs": [
        {
          "internalType": "address",
          "name": "_owner",
          "type": "address"
        }
      ],
      "payable": false,
      "stateMutability": "nonpayable",
      "type": "constructor"
    },
    {
      "anonymous": false,
      "inputs": [
        {
          "indexed": true,
          "internalType": "address",
          "name": "_from",
          "type": "address"
        },
        {
          "indexed": false,
          "internalType": "uint256",
          "name": "_value",
          "type": "uint256"
        }
      ],
      "name": "DepositViaFallback",
      "type": "event"
    },
    {
      "payable": true,
      "stateMutability": "payable",
      "type": "fallback"
    },
    {
      "constant": false,
      "inputs": [
        {
          "internalType": "address payable",
          "name": "_to",
          "type": "address"
        }
      ],
      "name": "sendEth",
      "outputs": [
        {
          "internalType": "uint256",
          "name": "",
          "type": "uint256"
        }
      ],
      "payable": true,
      "stateMutability": "payable",
      "type": "function"
    }
  ],
  "bytecode": "0x608060405234801561001057600080fd5b506040516101e03803806101e08339818101604052602081101561003357600080fd5b8101908080519060200190929190505050806000806101000a81548173ffffffffffffffffffffffffffffffffffffffff021916908373ffffffffffffffffffffffffffffffffffffffff1602179055505061014c806100946000396000f3fe60806040526004361061001e5760003560e01c806376a54c601461006e575b3373ffffffffffffffffffffffffffffffffffffffff167f0652001760b75ee50bd1d2af649634048d874c380d71646f00e41a74f55af3d7346040518082815260200191505060405180910390a2005b6100b06004803603602081101561008457600080fd5b81019080803573ffffffffffffffffffffffffffffffffffffffff1690602001909291905050506100c6565b6040518082815260200191505060405180910390f35b60008173ffffffffffffffffffffffffffffffffffffffff166108fc349081150290604051600060405180830381858888f1935050505015801561010e573d6000803e3d6000fd5b5047905091905056fea265627a7a723158209467685de332c5fa2108d2c1daf50bcf673b61411681874747157f0091397a1c64736f6c63430005100032",
  "source": "// SPDX-License-Identifier: GPL-3.0\n\npragma solidity ^0.5.16;\n\ncontract Transfers {\n    address private owner;\n\n    modifier onlyOwner() {\n        require(msg.sender == owner, \"Only owner can send eth\");\n        _;\n    }\n\n    //Declare an Event\n    // event DepositViaFallback(address indexed _from, bytes32 indexed _id, uint _value);\n    event DepositViaFallback(address indexed _from, uint _value);\n\n    constructor(address _owner) public {\n        owner = _owner;\n\n    }\n\n    function sendEth(address payable _to) public payable returns(uint256) {\n        _to.transfer(msg.value);\n        //Emit an event\n        return address(this).balance;\n    }\n\n    // fallback\n    function() external payable  {\n        // Note: the following line is not needed, as the fallback automatically \n        //       increases the contract's balance msg.value\n        // address(this).balance += msg.value;\n        emit DepositViaFallback(msg.sender, msg.value);\n    }\n\n}",
  "sourcePath": "/home/rick/projects/blockchain/ethereum/eth_swap/src/contracts/Transfers.sol",
  "compiler": {
    "name": "solc",
    "version": "0.5.16+commit.9c3226ce.Emscripten.clang"
  },
  "schemaVersion": "3.2.3",
  "updatedAt": "2022-02-13T04:04:02.747Z",
  "networkType": "ethereum",
  "devdoc": {
    "methods": {}
  },
  "userdoc": {
    "methods": {}
  }
}